:103800003FEF3DBF33E03EBF30E030BD37E139B977
:1038100030E43BB938E13AB936E830BDCCD0A32F1B
:10382000A03719F433E5C3D0BBC0A13619F439E58C
:10383000BED0B6C0A33579F431E4B9D036E5B7D0FF
:1038400032E5B5D032E4B3D03FE4B1D03FE4AFD0FD
:1038500034E5ADD0A5C0A43729F434E6A8D030E0D3
:10386000A6D09EC0A63529F432E3A1D031E39FD083
:1038700097C0A43509F48AC0A13449F49CD0F32F31
:103880009AD0E32FEE0FFF1F3DE091D089C0A03505
:1038900019F43DE08CD084C0AC3419F43DE087D0FD
:1038A0007FC0A33739F43EE182D034E980D032E0E2
:1038B0007ED076C0A43649F4EEBBFFBBE09A0DB2D1
:1038C000EF5FFF4F302D73D06BC0A23561F4C89508
:1038D000102CEF5FFF4FC895EF5FFF4F302D67D083
:1038E000312D65D05DC0A33609F565D0F32E0E2FBE
:1038F0000F770023B9F433E037BFE89552D03FEF9C
:10390000032E132EFF93EF9310E031E037BFE895BD
:1039100032961F3311F01395F8CFEF91FF9137B71F
:1039200030FDFDCF0F2C3DE042D03AC0A33449F426
:1039300042D0132E31E037BFE89532963DE037D0C4
:103940002FC0AD3639F435E037BFE8952AD03DE0D9
:103950002ED026C0A53619F43DE029D021C0A535CA
:1039600081F4E0E0F0E000E033E037BFE89519D003
:10397000E058FF4F003711F00395F6CF3DE017D028
:103980000FC0A83709F402C0A93721F414D03DE0D4
:103990000ED006C0AB3109F403C03FE308D000C02D
:1039A0003DCF37B730FDFDCF31E137BF08955D9B87
:1039B000FECF3CB908955F9BFECF3CB10895FF93C5
:1039C000EF93E3E3F7E03197F1F7EF91FF91E150E7
:0639D000F040A9F7089584
:00000001FF
